:100000000A128A11FC2F00308A000408840A820731
:10001000003443346F346E3474346134673465347F
:100020006D343A34203420342034203420342034C9
:040030002034003444
:10094800F5007508F40006300310F40DFF3E031D92
:10095800A82C730874077F39803E0A128A118726EB
:100968000A128A110800C62CC730F200BB2CF20B01
:10097800BA2CBE2CBF2C0130F0020030031CF1034E
:10098800F102C62C70087104031DCB2CCC2CB82C9A
:10099800CD2C0800FA007608F8007808F9007608E7
:1009A800F8007808F3007A080A128A11A4240A12B7
:1009B8008A11F32C770884000A128A1103200A127C
:1009C8008A110A128A1101250A128A110130F800C7
:1009D8007808F7070130F8007808F907F32C77084A
:1009E80084000A128A1103200A128A11003A031D90
:1009F800FE2CFF2CDE2C002D0800F20083120313BE
:100A080008157208F00004300310F00CFF3E031DB7
:100A1800082D7008F10004300310F10DFF3E031D8E
:100A2800102D08080F397104880088110D30F00066
:100A3800F00B1C2D83120313881508157208F0009B
:100A480004300310F00DFF3E031D252D08080F3953
:100A58007004880088110D30F000F00B312D8312DE
:100A68000313881508000A128A1174250A128A11BC
:100A7800F601013083120313A8002808F70000309C
:100A88000A128A11CE240A128A114A2D0A308312B8
:100A98000313A8002808F9002B08FB002A08FA000D
:100AA8000330A9002908FC0000300A128A11122715
:100AB8000A128A11E830F0000330F1000A128A1194
:100AC800B7240A128A11013083120313AA070318E4
:100AD800AB0A0030AB074A2D4A2D0A128A110028AA
:100AE8006430F0000030F1000A128A11B7240A12AB
:100AF8008A11831603130811881108128812081323
:100B080088136430F0000030F1000A128A11B7240B
:100B18000A128A1183120313881528300A128A11BF
:100B280087260A128A110C300A128A1187260A129D
:100B38008A1101300A128A1187260A128A11023094
:100B48000A128A1187260A128A116430F0000030CE
:100B5800F1000A128A11B7240A128A110800F60154
:100B6800F31FB72DB82DC02DF209F309F20A0319A6
:100B7800F30AF601F60AC02DF11FC32DC42DCA2DA4
:100B8800F009F109F00A0319F10ACA2D7008710475
:100B98000319CF2DD02D052EF501F50ADF2D0130D3
:100BA8000310F00DF10DFF3E031DD42D0130F400AC
:100BB8007408F507DF2DF11FE22DE32DD32DE52D68
:100BC800E52D71087302031DEB2D70087202031CDA
:100BD800EE2DEF2DF62D7008F2027108031CF303B9
:100BE800F302F62D01300310F10CF00CFF3E031D4B
:080BF800F72D0130F502031D89
:100C0000022E032EE52D052E052E76080319092E3A
:100C10000A2E102EF209F309F20A0319F30A102E14
:100C20007308F1007208F000152E0800F601F11F9C
:100C30001A2E1B2E232EF009F109F00A0319F10ACE
:100C4000F601F60A232EF31F262E272E312EF20947
:100C5000F309F20A0319F30A0130F4007408F606E6
:100C6000312EF701F801700871040319382E392E5E
:100C7000762EF501F50A482E01300310F00DF10D26
:100C8000FF3E031D3D2E0130F4007408F507482E89
:100C9000F11F4B2E4C2E3C2E4E2E4E2E01300310AB
:100CA000F70DF80DFF3E031D4F2E71087302031D53
:100CB0005B2E70087202031C5E2E5F2E672E70087A
:100CC000F2027108031CF303F3027714672E01305C
:100CD0000310F10CF00CFF3E031D682E0130F502ED
:100CE000031D732E742E4E2E762E762E7608031943
:100CF0007A2E7B2E812EF709F809F70A0319F80AD4
:100D0000812E7808F1007708F000862E0800F200A6
:100D10008312031308117208F00004300310F00C62
:100D2000FF3E031D8E2E7008F10004300310F10DFC
:100D3000FF3E031D962E08080F39710488008811A4
:100D400072030319A42EA52EAC2E02307206031DC9
:100D5000AA2EAB2EB62EAC2E0330F1009730F00049
:100D6000F00BB02EF10BB02EB52EBB2E0D30F000D7
:100D7000F00BB82EBB2E831203138815F0307205CA
:100D8000F00020307006031DC62EC72EE52E081178
:100D90007208F00004300310F00CFF3E031DCB2E50
:100DA0007008F10004300310F10DFF3E031DD32E37
:100DB00008080F397104880088110D30F000F00B1D
:100DC000DF2E831203138815E52E08117208F00038
:100DD00004300310F00DFF3E031DE92E08080F3903
:100DE00070048800881172030319F72EF82EFF2E65
:100DF00002307206031DFD2EFE2E092FFF2E03303A
:100E0000F1009730F000F00B032FF10B032F082FA8
:100E10000E2F0D30F000F00B0B2F0E2F831203134B
:100E20008815080083120313A300FB1B182F1A2F29
:100E300001301B2F0030A0002008A5002508031951
:100E4000222F232F292FFA09FB09FA0A0319FB0A7B
:100E5000292F7908A0002008F30023080A128A111C
:100E6000A4240A128A11103083120313A60027301B
:100E7000A7000530A0002008A4006D2F83120313E3
:100E80002708F1002608F0007B08F3007A08F2003A
:100E90000A128A1116260A128A1170087104031D9B
:100EA000522F532F852F013083120313A402592F81
:100EB000852F0A30F0000030F1002708F3002608E3
:100EC000F2000A128A1116260A128A117108831278
:100ED0000313A7007008A6006D2F2708803AFF00B3
:100EE00080307F02031D762F013026020318792FF0
:100EF0007A2F3E2F852F852F20300A128A11012547
:100F00000A128A110130FC02852F83120313240870
:100F10002507A000A101A10D2108803AA200803080
:100F20002202031D952F7C0820020318982F992F69
:100F3000A12F02307C0203189E2F9F2F7C2FA12F00
:100F4000A12F8312031325080319A72FA82FAF2F52
:100F50002D300A128A1101250A128A11AF2F83122D
:100F600003132708F1002608F0007B08F3007A0835
:100F7000F2000A128A1116260A128A117008303EEF
:100F80000A128A1101250A128A11831203132708F3
:100F9000F1002608F0007B08F3007A08F2000A123C
:100FA0008A11B3250A128A117108FB007008FA0031
:100FB0000A30F0000030F100831203132708F30019
:100FC0002608F2000A128A1116260A128A117108DE
:100FD00083120313A7007008A6002708803AFF00B9
:100FE00080307F02031DF62F013026020318F92FEF
:100FF000FA2FAF2FFB2F080083010A128A11372D19
:04400E00D4E0FFFFFC
:00000001FF
